{
  "contractName": "Covid",
  "abi": [
    {
      "constant": true,
      "inputs": [],
      "name": "admAddress",
      "outputs": [
        {
          "name": "",
          "type": "address"
        }
      ],
      "payable": false,
      "stateMutability": "view",
      "type": "function",
      "signature": "0x031dcaf5"
    },
    {
      "constant": true,
      "inputs": [],
      "name": "name",
      "outputs": [
        {
          "name": "",
          "type": "string"
        }
      ],
      "payable": false,
      "stateMutability": "view",
      "type": "function",
      "signature": "0x06fdde03"
    },
    {
      "constant": true,
      "inputs": [
        {
          "name": "",
          "type": "uint256"
        }
      ],
      "name": "sHash",
      "outputs": [
        {
          "name": "hash",
          "type": "string"
        },
        {
          "name": "time",
          "type": "uint256"
        },
        {
          "name": "exp",
          "type": "int256"
        }
      ],
      "payable": false,
      "stateMutability": "view",
      "type": "function",
      "signature": "0x52a78780"
    },
    {
      "constant": true,
      "inputs": [
        {
          "name": "",
          "type": "address"
        }
      ],
      "name": "users",
      "outputs": [
        {
          "name": "username",
          "type": "string"
        },
        {
          "name": "role",
          "type": "uint8"
        }
      ],
      "payable": false,
      "stateMutability": "view",
      "type": "function",
      "signature": "0xa87430ba"
    },
    {
      "constant": true,
      "inputs": [],
      "name": "idHash",
      "outputs": [
        {
          "name": "",
          "type": "uint256"
        }
      ],
      "payable": false,
      "stateMutability": "view",
      "type": "function",
      "signature": "0xaa410732"
    },
    {
      "inputs": [],
      "payable": false,
      "stateMutability": "nonpayable",
      "type": "constructor",
      "signature": "constructor"
    },
    {
      "constant": false,
      "inputs": [
        {
          "name": "uAddress",
          "type": "address"
        },
        {
          "name": "uName",
          "type": "string"
        },
        {
          "name": "uRole",
          "type": "int256"
        }
      ],
      "name": "addUser",
      "outputs": [],
      "payable": false,
      "stateMutability": "nonpayable",
      "type": "function",
      "signature": "0x1582f21e"
    },
    {
      "constant": false,
      "inputs": [
        {
          "name": "hash",
          "type": "string"
        },
        {
          "name": "exp",
          "type": "int256"
        }
      ],
      "name": "storeHash",
      "outputs": [],
      "payable": false,
      "stateMutability": "nonpayable",
      "type": "function",
      "signature": "0xc0ab60fb"
    }
  ],
  "bytecode": "0x6080604052600060015534801561001557600080fd5b50606060405190810160405280603181526020017f41706c696b6173692056616c6964617369205375726174204b65746572616e6781526020017f616e20426562617320436f7669642d313900000000000000000000000000000081525060009080519060200190610088929190610203565b5033600260006101000a81548173ffffffffffffffffffffffffffffffffffffffff021916908373ffffffffffffffffffffffffffffffffffffffff1602179055506040805190810160405280600581526020017f41646d696e00000000000000000000000000000000000000000000000000000081525060046000600260009054906101000a900473ffffffffffffffffffffffffffffffffffffffff1673ffffffffffffffffffffffffffffffffffffffff1673ffffffffffffffffffffffffffffffffffffffff1681526020019081526020016000206000019080519060200190610177929190610203565b50600360046000600260009054906101000a900473ffffffffffffffffffffffffffffffffffffffff1673ffffffffffffffffffffffffffffffffffffffff1673ffffffffffffffffffffffffffffffffffffffff16815260200190815260200160002060010160006101000a81548160ff021916908360038111156101f957fe5b02179055506102a8565b828054600181600116156101000203166002900490600052602060002090601f016020900481019282601f1061024457805160ff1916838001178555610272565b82800160010185558215610272579182015b82811115610271578251825591602001919060010190610256565b5b50905061027f9190610283565b5090565b6102a591905b808211156102a1576000816000905550600101610289565b5090565b90565b610e1580620002b86000396000f3fe608060405260043610610083576000357c0100000000000000000000000000000000000000000000000000000000900463ffffffff168063031dcaf51461008857806306fdde03146100df5780631582f21e1461016f57806352a7878014610261578063a87430ba14610323578063aa41073214610402578063c0ab60fb1461042d575b600080fd5b34801561009457600080fd5b5061009d6104ff565b604051808273ffffffffffffffffffffffffffffffffffffffff1673ffffffffffffffffffffffffffffffffffffffff16815260200191505060405180910390f35b3480156100eb57600080fd5b506100f4610525565b6040518080602001828103825283818151815260200191508051906020019080838360005b83811015610134578082015181840152602081019050610119565b50505050905090810190601f1680156101615780820380516001836020036101000a031916815260200191505b509250505060405180910390f35b34801561017b57600080fd5b5061025f6004803603606081101561019257600080fd5b81019080803573ffffffffffffffffffffffffffffffffffffffff169060200190929190803590602001906401000000008111156101cf57600080fd5b8201836020820111156101e157600080fd5b8035906020019184600183028401116401000000008311171561020357600080fd5b91908080601f016020809104026020016040519081016040528093929190818152602001838380828437600081840152601f19601f820116905080830192505050505050509192919290803590602001909291905050506105c3565b005b34801561026d57600080fd5b5061029a6004803603602081101561028457600080fd5b81019080803590602001909291905050506107d5565b6040518080602001848152602001838152602001828103825285818151815260200191508051906020019080838360005b838110156102e65780820151818401526020810190506102cb565b50505050905090810190601f1680156103135780820380516001836020036101000a031916815260200191505b5094505050505060405180910390f35b34801561032f57600080fd5b506103726004803603602081101561034657600080fd5b81019080803573ffffffffffffffffffffffffffffffffffffffff169060200190929190505050610897565b604051808060200183600381111561038657fe5b60ff168152602001828103825284818151815260200191508051906020019080838360005b838110156103c65780820151818401526020810190506103ab565b50505050905090810190601f1680156103f35780820380516001836020036101000a031916815260200191505b50935050505060405180910390f35b34801561040e57600080fd5b50610417610960565b6040518082815260200191505060405180910390f35b34801561043957600080fd5b506104fd6004803603604081101561045057600080fd5b810190808035906020019064010000000081111561046d57600080fd5b82018360208201111561047f57600080fd5b803590602001918460018302840111640100000000831117156104a157600080fd5b91908080601f016020809104026020016040519081016040528093929190818152602001838380828437600081840152601f19601f82011690508083019250505050505050919291929080359060200190929190505050610966565b005b600260009054906101000a900473ffffffffffffffffffffffffffffffffffffffff1681565b60008054600181600116156101000203166002900480601f0160208091040260200160405190810160405280929190818152602001828054600181600116156101000203166002900480156105bb5780601f10610590576101008083540402835291602001916105bb565b820191906000526020600020905b81548152906001019060200180831161059e57829003601f168201915b505050505081565b600260009054906101000a900473ffffffffffffffffffffffffffffffffffffffff1673ffffffffffffffffffffffffffffffffffffffff163373ffffffffffffffffffffffffffffffffffffffff1614151561061f57600080fd5b60028113151515610698576040517f08c379a00000000000000000000000000000000000000000000000000000000081526004018080602001828103825260128152602001807f526f6c65204e6f7420417661696c61626c65000000000000000000000000000081525060200191505060405180910390fd5b81600460008573ffffffffffffffffffffffffffffffffffffffff1673ffffffffffffffffffffffffffffffffffffffff16815260200190815260200160002060000190805190602001906106ee929190610cc4565b506000811415610761576001600460008573ffffffffffffffffffffffffffffffffffffffff1673ffffffffffffffffffffffffffffffffffffffff16815260200190815260200160002060010160006101000a81548160ff0219169083600381111561075757fe5b02179055506107d0565b60018114156107cf576002600460008573ffffffffffffffffffffffffffffffffffffffff1673ffffffffffffffffffffffffffffffffffffffff16815260200190815260200160002060010160006101000a81548160ff021916908360038111156107c957fe5b02179055505b5b505050565b6003602052806000526040600020600091509050806000018054600181600116156101000203166002900480601f0160208091040260200160405190810160405280929190818152602001828054600181600116156101000203166002900480156108815780601f1061085657610100808354040283529160200191610881565b820191906000526020600020905b81548152906001019060200180831161086457829003601f168201915b5050505050908060010154908060020154905083565b6004602052806000526040600020600091509050806000018054600181600116156101000203166002900480601f0160208091040260200160405190810160405280929190818152602001828054600181600116156101000203166002900480156109435780601f1061091857610100808354040283529160200191610943565b820191906000526020600020905b81548152906001019060200180831161092657829003601f168201915b5050505050908060010160009054906101000a900460ff16905082565b60015481565b600060015414156109ed576060604051908101604052808381526020014281526020018281525060036000600154815260200190815260200160002060008201518160000190805190602001906109be929190610d44565b506020820151816001015560408201518160020155905050600160008154809291906001019190505550610cc0565b60008090506000600154905060008090505b600082141515610b2d57846040516020018082805190602001908083835b602083101515610a425780518252602082019150602081019050602083039250610a1d565b6001836020036101000a03801982511681845116808217855250505050505090500191505060405160208183030381529060405280519060200120600360008581526020019081526020016000206000016040516020018082805460018160011615610100020316600290048015610af15780601f10610acf576101008083540402835291820191610af1565b820191906000526020600020905b815481529060010190602001808311610add575b5050915050604051602081830303815290604052805190602001201415610b1757600190505b82806001019350508180600190039250506109ff565b82806001900393505060001515811515141515610bb2576040517f08c379a00000000000000000000000000000000000000000000000000000000081526004018080602001828103825260188152602001807f54686973204861736820416c726561647920457869737421000000000000000081525060200191505060405180910390fd5b600060036000858152602001908152602001600020600101544203905062093a8081101515610c435760606040519081016040528087815260200142815260200186815250600360008681526020019081526020016000206000820151816000019080519060200190610c26929190610d44565b506020820151816001015560408201518160020155905050610cbb565b606060405190810160405280878152602001428152602001868152506003600060015481526020019081526020016000206000820151816000019080519060200190610c90929190610d44565b5060208201518160010155604082015181600201559050506001600081548092919060010191905055505b505050505b5050565b828054600181600116156101000203166002900490600052602060002090601f016020900481019282601f10610d0557805160ff1916838001178555610d33565b82800160010185558215610d33579182015b82811115610d32578251825591602001919060010190610d17565b5b509050610d409190610dc4565b5090565b828054600181600116156101000203166002900490600052602060002090601f016020900481019282601f10610d8557805160ff1916838001178555610db3565b82800160010185558215610db3579182015b82811115610db2578251825591602001919060010190610d97565b5b509050610dc09190610dc4565b5090565b610de691905b80821115610de2576000816000905550600101610dca565b5090565b9056fea165627a7a723058203aee8c1218ea41dae83eee6ef551cb866d3f5da45822ae21732445c67c5480510029",
  "source": "pragma solidity >=0.4.21 <0.6.0;\r\n\r\ncontract Covid{\r\n    string public name;\r\n    uint256 public idHash = 0;\r\n    enum roles{pasien,dokter,validator,admin}\r\n    address public admAddress;\r\n    \r\n\r\n    struct User{\r\n        string username;\r\n        roles role;\r\n    }\r\n    \r\n    struct SHash{\r\n        string hash;\r\n        uint256 time;\r\n        int exp;\r\n    }\r\n\r\n     constructor() public{\r\n        name=\"Aplikasi Validasi Surat Keterangan Bebas Covid-19\";\r\n        admAddress=msg.sender;\r\n        users[admAddress].username='Admin';\r\n        users[admAddress].role = roles.admin;\r\n    }\r\n    \r\n    mapping(uint256=>SHash) public sHash;\r\n    mapping(address => User) public users;\r\n    //SHash[] public sHash;\r\n    \r\n    function addUser(address uAddress, string memory uName, int uRole) public{\r\n        require(msg.sender==admAddress);\r\n        require(\r\n            uRole<=2,\r\n            \"Role Not Available\"\r\n        );\r\n        users[uAddress].username=uName;\r\n        if(uRole==0){\r\n            users[uAddress].role= roles.dokter;\r\n        }else if(uRole==1){\r\n            users[uAddress].role= roles.validator;\r\n        }\r\n    }\r\n    \r\n    function storeHash(string memory hash, int exp) public {\r\n        if(idHash==0){\r\n           sHash[idHash]=SHash(hash,block.timestamp,exp); \r\n           idHash++;\r\n        }else{\r\n            uint j=0;\r\n            uint i=idHash;\r\n            bool exist=false;\r\n            while(i!=0){    \r\n                if(keccak256(abi.encodePacked((sHash[j].hash))) == keccak256(abi.encodePacked((hash)))){\r\n                    exist=true;\r\n                }\r\n                j++;\r\n                i--;\r\n            }\r\n            j--;\r\n            require(exist==false,\r\n                \"This Hash Already Exist!\"\r\n            );\r\n            uint Tnow=block.timestamp-sHash[j].time;\r\n            if(Tnow>=604800){\r\n                sHash[j]=SHash(hash,block.timestamp,exp);\r\n            }else{\r\n                sHash[idHash]=SHash(hash,block.timestamp,exp);\r\n                idHash++;\r\n            }\r\n        }\r\n\r\n        \r\n\r\n    }\r\n    \r\n    \r\n    // function isValid(string memory idx) public returns(uint hash){\r\n    //     uint i=idHash;\r\n    //     uint j=0;\r\n    //     while(i!=0){\r\n    //         if(keccak256(abi.encodePacked((sHash[j].hash))) == keccak256(abi.encodePacked((idx)))){\r\n    //             hash=block.number;\r\n    //         }\r\n    //         j++;\r\n    //         i--;\r\n    //     } \r\n    // }\r\n}\r\n\r\n \r\n ",
  "sourcePath": "D:/React/CB/ta2021/src/contracts/Covid.sol",
  "compiler": {
    "name": "solc",
    "version": "0.5.0+commit.1d4f565a.Emscripten.clang"
  },
  "schemaVersion": "3.0.2",
  "updatedAt": "2022-01-09T02:38:28.870Z",
  "devdoc": {
    "methods": {}
  },
  "userdoc": {
    "methods": {}
  }
}